{
  "address": "0x6d935caEE07c391DE59d3ff7C90fdd8Afea6caDF",
  "abi": [
    {
      "inputs": [
        {
          "internalType": "address",
          "name": "_investToken",
          "type": "address"
        },
        {
          "internalType": "uint256",
          "name": "_startTime",
          "type": "uint256"
        },
        {
          "internalType": "uint256",
          "name": "_duration",
          "type": "uint256"
        },
        {
          "internalType": "uint256",
          "name": "_epochTime",
          "type": "uint256"
        },
        {
          "internalType": "uint256",
          "name": "_initialCap",
          "type": "uint256"
        },
        {
          "internalType": "uint256",
          "name": "_totalraiseCap",
          "type": "uint256"
        },
        {
          "internalType": "uint256",
          "name": "_minInvest",
          "type": "uint256"
        },
        {
          "internalType": "address",
          "name": "_treasury",
          "type": "address"
        },
        {
          "internalType": "address",
          "name": "_nrtAddress",
          "type": "address"
        }
      ],
      "stateMutability": "nonpayable",
      "type": "constructor"
    },
    {
      "anonymous": false,
      "inputs": [
        {
          "indexed": false,
          "internalType": "address",
          "name": "investor",
          "type": "address"
        },
        {
          "indexed": false,
          "internalType": "uint256",
          "name": "amount",
          "type": "uint256"
        }
      ],
      "name": "Invest",
      "type": "event"
    },
    {
      "anonymous": false,
      "inputs": [
        {
          "indexed": true,
          "internalType": "address",
          "name": "previousOwner",
          "type": "address"
        },
        {
          "indexed": true,
          "internalType": "address",
          "name": "newOwner",
          "type": "address"
        }
      ],
      "name": "OwnershipTransferred",
      "type": "event"
    },
    {
      "anonymous": false,
      "inputs": [
        {
          "indexed": false,
          "internalType": "address",
          "name": "investor",
          "type": "address"
        },
        {
          "indexed": false,
          "internalType": "uint256",
          "name": "amount",
          "type": "uint256"
        }
      ],
      "name": "Redeem",
      "type": "event"
    },
    {
      "anonymous": false,
      "inputs": [
        {
          "indexed": false,
          "internalType": "bool",
          "name": "enabled",
          "type": "bool"
        },
        {
          "indexed": false,
          "internalType": "uint256",
          "name": "time",
          "type": "uint256"
        }
      ],
      "name": "RedeemEnabled",
      "type": "event"
    },
    {
      "anonymous": false,
      "inputs": [
        {
          "indexed": false,
          "internalType": "bool",
          "name": "enabled",
          "type": "bool"
        },
        {
          "indexed": false,
          "internalType": "uint256",
          "name": "time",
          "type": "uint256"
        }
      ],
      "name": "SaleEnabled",
      "type": "event"
    },
    {
      "inputs": [
        {
          "internalType": "address[]",
          "name": "_addresses",
          "type": "address[]"
        }
      ],
      "name": "addMultipleWhitelist",
      "outputs": [],
      "stateMutability": "nonpayable",
      "type": "function"
    },
    {
      "inputs": [
        {
          "internalType": "address",
          "name": "_address",
          "type": "address"
        }
      ],
      "name": "addWhitelist",
      "outputs": [],
      "stateMutability": "nonpayable",
      "type": "function"
    },
    {
      "inputs": [],
      "name": "currentCap",
      "outputs": [
        {
          "internalType": "uint256",
          "name": "",
          "type": "uint256"
        }
      ],
      "stateMutability": "view",
      "type": "function"
    },
    {
      "inputs": [],
      "name": "currentEpoch",
      "outputs": [
        {
          "internalType": "uint256",
          "name": "",
          "type": "uint256"
        }
      ],
      "stateMutability": "view",
      "type": "function"
    },
    {
      "inputs": [
        {
          "internalType": "uint256",
          "name": "amount",
          "type": "uint256"
        }
      ],
      "name": "depositLaunchtoken",
      "outputs": [],
      "stateMutability": "nonpayable",
      "type": "function"
    },
    {
      "inputs": [],
      "name": "duration",
      "outputs": [
        {
          "internalType": "uint256",
          "name": "",
          "type": "uint256"
        }
      ],
      "stateMutability": "view",
      "type": "function"
    },
    {
      "inputs": [],
      "name": "enableRedeem",
      "outputs": [],
      "stateMutability": "nonpayable",
      "type": "function"
    },
    {
      "inputs": [],
      "name": "enableSale",
      "outputs": [],
      "stateMutability": "nonpayable",
      "type": "function"
    },
    {
      "inputs": [],
      "name": "endTime",
      "outputs": [
        {
          "internalType": "uint256",
          "name": "",
          "type": "uint256"
        }
      ],
      "stateMutability": "view",
      "type": "function"
    },
    {
      "inputs": [],
      "name": "epochTime",
      "outputs": [
        {
          "internalType": "uint256",
          "name": "",
          "type": "uint256"
        }
      ],
      "stateMutability": "view",
      "type": "function"
    },
    {
      "inputs": [],
      "name": "initialCap",
      "outputs": [
        {
          "internalType": "uint256",
          "name": "",
          "type": "uint256"
        }
      ],
      "stateMutability": "view",
      "type": "function"
    },
    {
      "inputs": [
        {
          "internalType": "uint256",
          "name": "investAmount",
          "type": "uint256"
        }
      ],
      "name": "invest",
      "outputs": [],
      "stateMutability": "nonpayable",
      "type": "function"
    },
    {
      "inputs": [],
      "name": "investToken",
      "outputs": [
        {
          "internalType": "address",
          "name": "",
          "type": "address"
        }
      ],
      "stateMutability": "view",
      "type": "function"
    },
    {
      "inputs": [
        {
          "internalType": "address",
          "name": "",
          "type": "address"
        }
      ],
      "name": "investorInfoMap",
      "outputs": [
        {
          "internalType": "uint256",
          "name": "amountInvested",
          "type": "uint256"
        },
        {
          "internalType": "bool",
          "name": "claimed",
          "type": "bool"
        }
      ],
      "stateMutability": "view",
      "type": "function"
    },
    {
      "inputs": [],
      "name": "launchDecimals",
      "outputs": [
        {
          "internalType": "uint256",
          "name": "",
          "type": "uint256"
        }
      ],
      "stateMutability": "view",
      "type": "function"
    },
    {
      "inputs": [],
      "name": "launchToken",
      "outputs": [
        {
          "internalType": "address",
          "name": "",
          "type": "address"
        }
      ],
      "stateMutability": "view",
      "type": "function"
    },
    {
      "inputs": [],
      "name": "maxCap",
      "outputs": [
        {
          "internalType": "uint256",
          "name": "",
          "type": "uint256"
        }
      ],
      "stateMutability": "view",
      "type": "function"
    },
    {
      "inputs": [],
      "name": "mininvest",
      "outputs": [
        {
          "internalType": "uint256",
          "name": "",
          "type": "uint256"
        }
      ],
      "stateMutability": "view",
      "type": "function"
    },
    {
      "inputs": [],
      "name": "nrt",
      "outputs": [
        {
          "internalType": "contract CommunityOfferingNRT",
          "name": "",
          "type": "address"
        }
      ],
      "stateMutability": "view",
      "type": "function"
    },
    {
      "inputs": [],
      "name": "numInvested",
      "outputs": [
        {
          "internalType": "uint256",
          "name": "",
          "type": "uint256"
        }
      ],
      "stateMutability": "view",
      "type": "function"
    },
    {
      "inputs": [],
      "name": "numWhitelisted",
      "outputs": [
        {
          "internalType": "uint256",
          "name": "",
          "type": "uint256"
        }
      ],
      "stateMutability": "view",
      "type": "function"
    },
    {
      "inputs": [],
      "name": "owner",
      "outputs": [
        {
          "internalType": "address",
          "name": "",
          "type": "address"
        }
      ],
      "stateMutability": "view",
      "type": "function"
    },
    {
      "inputs": [],
      "name": "price",
      "outputs": [
        {
          "internalType": "uint256",
          "name": "",
          "type": "uint256"
        }
      ],
      "stateMutability": "view",
      "type": "function"
    },
    {
      "inputs": [],
      "name": "priceQuote",
      "outputs": [
        {
          "internalType": "uint256",
          "name": "",
          "type": "uint256"
        }
      ],
      "stateMutability": "view",
      "type": "function"
    },
    {
      "inputs": [],
      "name": "redeem",
      "outputs": [],
      "stateMutability": "nonpayable",
      "type": "function"
    },
    {
      "inputs": [],
      "name": "redeemEnabled",
      "outputs": [
        {
          "internalType": "bool",
          "name": "",
          "type": "bool"
        }
      ],
      "stateMutability": "view",
      "type": "function"
    },
    {
      "inputs": [
        {
          "internalType": "address",
          "name": "_address",
          "type": "address"
        }
      ],
      "name": "removeWhitelist",
      "outputs": [],
      "stateMutability": "nonpayable",
      "type": "function"
    },
    {
      "inputs": [],
      "name": "renounceOwnership",
      "outputs": [],
      "stateMutability": "nonpayable",
      "type": "function"
    },
    {
      "inputs": [],
      "name": "saleEnabled",
      "outputs": [
        {
          "internalType": "bool",
          "name": "",
          "type": "bool"
        }
      ],
      "stateMutability": "view",
      "type": "function"
    },
    {
      "inputs": [
        {
          "internalType": "address",
          "name": "_launchToken",
          "type": "address"
        }
      ],
      "name": "setLaunchToken",
      "outputs": [],
      "stateMutability": "nonpayable",
      "type": "function"
    },
    {
      "inputs": [],
      "name": "startTime",
      "outputs": [
        {
          "internalType": "uint256",
          "name": "",
          "type": "uint256"
        }
      ],
      "stateMutability": "view",
      "type": "function"
    },
    {
      "inputs": [],
      "name": "totalissued",
      "outputs": [
        {
          "internalType": "uint256",
          "name": "",
          "type": "uint256"
        }
      ],
      "stateMutability": "view",
      "type": "function"
    },
    {
      "inputs": [],
      "name": "totalraiseCap",
      "outputs": [
        {
          "internalType": "uint256",
          "name": "",
          "type": "uint256"
        }
      ],
      "stateMutability": "view",
      "type": "function"
    },
    {
      "inputs": [],
      "name": "totalraised",
      "outputs": [
        {
          "internalType": "uint256",
          "name": "",
          "type": "uint256"
        }
      ],
      "stateMutability": "view",
      "type": "function"
    },
    {
      "inputs": [],
      "name": "totalredeem",
      "outputs": [
        {
          "internalType": "uint256",
          "name": "",
          "type": "uint256"
        }
      ],
      "stateMutability": "view",
      "type": "function"
    },
    {
      "inputs": [
        {
          "internalType": "address",
          "name": "newOwner",
          "type": "address"
        }
      ],
      "name": "transferOwnership",
      "outputs": [],
      "stateMutability": "nonpayable",
      "type": "function"
    },
    {
      "inputs": [],
      "name": "treasury",
      "outputs": [
        {
          "internalType": "address",
          "name": "",
          "type": "address"
        }
      ],
      "stateMutability": "view",
      "type": "function"
    },
    {
      "inputs": [
        {
          "internalType": "address",
          "name": "",
          "type": "address"
        }
      ],
      "name": "whitelisted",
      "outputs": [
        {
          "internalType": "bool",
          "name": "",
          "type": "bool"
        }
      ],
      "stateMutability": "view",
      "type": "function"
    },
    {
      "inputs": [
        {
          "internalType": "uint256",
          "name": "amount",
          "type": "uint256"
        }
      ],
      "name": "withdrawLaunchtoken",
      "outputs": [],
      "stateMutability": "nonpayable",
      "type": "function"
    },
    {
      "inputs": [
        {
          "internalType": "uint256",
          "name": "amount",
          "type": "uint256"
        }
      ],
      "name": "withdrawTreasury",
      "outputs": [],
      "stateMutability": "nonpayable",
      "type": "function"
    }
  ],
  "transactionHash": "0x1eb4352b05b624ecf3b5fb8ccb905f503ac9732fd1e97c77b275c7991ea1ddac",
  "args": [
    "0x04068da6c83afcfa0e13ba15a6696662335d5b75",
    1644681600,
    86400,
    21600,
    "100000000",
    "10000000000",
    0,
    "0x0b7b7AE45bC137Ea0A36422eaC5Bc52e7657A225",
    "0xF12EBB3F1135D6afE03016ACf595d2942161C9f5"
  ],
  "solcInputHash": "5e2abc935e11ac2b7a6dba8be76abdca",
  "bytecode": "0x6080604052600860055560646006556009601355600060145560006015553480156200002a57600080fd5b506040516200182f3803806200182f8339810160408190526200004d91620001ba565b62000058336200014d565b600180546001600160a01b03808c166001600160a01b031992831617909255600d8a9055600e899055600f889055600787905560098690556012859055600380549285169290911691909117905562093a808710620000f15760405162461bcd60e51b81526020600482015260116024820152706475726174696f6e20746f6f206c6f6e6760781b604482015260640160405180910390fd5b600e54600d546200010391906200023f565b601055600480546001600160a01b0319166001600160a01b039290921691909117905550506011805461ffff191690555050682b5e3af16b18800000600855506200026692505050565b600080546001600160a01b038381166001600160a01b0319831681178455604051919092169283917f8be0079c531659141344cd1fd0a4f28419497f9722a3daafe3b4186f6b6457e09190a35050565b80516001600160a01b0381168114620001b557600080fd5b919050565b60008060008060008060008060006101208a8c031215620001da57600080fd5b620001e58a6200019d565b985060208a0151975060408a0151965060608a0151955060808a0151945060a08a0151935060c08a015192506200021f60e08b016200019d565b9150620002306101008b016200019d565b90509295985092959850929598565b600082198211156200026157634e487b7160e01b600052601160045260246000fd5b500190565b6115b980620002766000396000f3fe608060405234801561001057600080fd5b50600436106102485760003560e01c80638a5396a31161013b578063be040fb0116100b8578063f2fde38b1161007c578063f2fde38b14610448578063f703f36f1461045b578063f80f5dd51461049a578063f9fd3ba2146104ad578063ff16e750146104c057600080fd5b8063be040fb0146103f0578063c683d8e4146103f8578063d2f8253614610400578063d936547e14610412578063e545338c1461043557600080fd5b8063b5224c44116100ff578063b5224c44146103b9578063b811215e146103c2578063badf822b146103cb578063bc284c5c146103de578063bc5c619a146103e757600080fd5b80638a5396a31461037a5780638da5cb5b14610383578063a035b1fe14610394578063a28a4d861461039d578063a4197afc146103b057600080fd5b8063604a85da116101c9578063766718081161018d578063766718081461034557806378c8cda71461034d57806378e9792514610360578063856ed70314610369578063861d8e131461037157600080fd5b8063604a85da146102cf57806361d027b3146102e2578063715018a61461030d57806371b9b64614610315578063729413161461033257600080fd5b806323548b8b1161021057806323548b8b146102985780632afcf480146102a15780633197cbb6146102b45780635053e461146102bd57806354dacb96146102c657600080fd5b8063061873e81461024d5780630b1258a0146102575780630fb5a6b41461027357806311f1fc991461027c57806322e274031461028f575b600080fd5b6102556104d3565b005b61026060135481565b6040519081526020015b60405180910390f35b610260600e5481565b61025561028a366004611351565b6105a0565b610260600c5481565b61026060085481565b6102556102af366004611351565b610672565b61026060105481565b610260600f5481565b61026060145481565b6102556102dd36600461128a565b610a99565b6003546102f5906001600160a01b031681565b6040516001600160a01b03909116815260200161026a565b610255610ae5565b6011546103229060ff1681565b604051901515815260200161026a565b6102556103403660046112ba565b610b1b565b610260610c2b565b61025561035b36600461128a565b610c5c565b610260600d5481565b610260610ca7565b61026060155481565b610260600a5481565b6000546001600160a01b03166102f5565b61026060055481565b6002546102f5906001600160a01b031681565b610260600b5481565b61026060095481565b61026060075481565b6001546102f5906001600160a01b031681565b61026060125481565b61026060065481565b610255610cea565b610255611000565b60115461032290610100900460ff1681565b61032261042036600461128a565b60166020526000908152604090205460ff1681565b6004546102f5906001600160a01b031681565b61025561045636600461128a565b61106f565b61048561046936600461128a565b6017602052600090815260409020805460019091015460ff1682565b6040805192835290151560208301520161026a565b6102556104a836600461128a565b611107565b6102556104bb366004611351565b611172565b6102556104ce366004611351565b6111d9565b6000546001600160a01b031633146105065760405162461bcd60e51b81526004016104fd90611383565b60405180910390fd5b6002546001600160a01b03166105555760405162461bcd60e51b81526020600482015260146024820152731b185d5b98da081d1bdad95b881b9bdd081cd95d60621b60448201526064016104fd565b6011805461ff00191661010017905560408051600181524260208201527fef5fd91dc9b012f3e4b41e00dc71466a39c83d97c3cc3879de5b9193f456c63091015b60405180910390a1565b6000546001600160a01b031633146105ca5760405162461bcd60e51b81526004016104fd90611383565b60015460035460405163a9059cbb60e01b81526001600160a01b0391821660048201526024810184905291169063a9059cbb906044015b602060405180830381600087803b15801561061b57600080fd5b505af115801561062f573d6000803e3d6000fd5b505050506040513d601f19601f82011682018060405250810190610653919061132f565b61066f5760405162461bcd60e51b81526004016104fd906113b8565b50565b600d544210156106b65760405162461bcd60e51b815260206004820152600f60248201526e1b9bdd081cdd185c9d1959081e595d608a1b60448201526064016104fd565b60115460ff166106fa5760405162461bcd60e51b815260206004820152600f60248201526e1b9bdd08195b98589b1959081e595d608a1b60448201526064016104fd565b3360009081526016602052604090205460ff16151560011461075e5760405162461bcd60e51b815260206004820152601d60248201527f6d73672e73656e646572206973206e6f742077686974656c697374656400000060448201526064016104fd565b60095481600a5461076f91906113e1565b11156107b05760405162461bcd60e51b815260206004820152601060248201526f6f76657220746f74616c20726169736560801b60448201526064016104fd565b6012548110156107f95760405162461bcd60e51b815260206004820152601460248201527318995b1bddc81b5a5b9a5b5d5b481a5b9d995cdd60621b60448201526064016104fd565b6010544211156108395760405162461bcd60e51b815260206004820152600b60248201526a1cd85b195cc8195b99195960aa1b60448201526064016104fd565b6000610843610ca7565b33600090815260176020526040902080549192509082906108659085906113e1565b111561089f5760405162461bcd60e51b8152602060048201526009602482015268061626f7665206361760bc1b60448201526064016104fd565b6001546040516323b872dd60e01b8152336004820152306024820152604481018590526001600160a01b03909116906323b872dd90606401602060405180830381600087803b1580156108f157600080fd5b505af1158015610905573d6000803e3d6000fd5b505050506040513d601f19601f82011682018060405250810190610929919061132f565b6109455760405162461bcd60e51b81526004016104fd906113b8565b6000620f4240600554600654601354600a610960919061145e565b61096a9088611506565b6109749190611506565b61097e91906113f9565b61098891906113f9565b6004805460405163219e412d60e21b81523392810192909252602482018390529192506001600160a01b039091169063867904b490604401600060405180830381600087803b1580156109da57600080fd5b505af11580156109ee573d6000803e3d6000fd5b5050505083600a6000828254610a0491906113e1565b9250508190555080600b6000828254610a1d91906113e1565b90915550508154610a4157600160156000828254610a3b91906113e1565b90915550505b83826000016000828254610a5591906113e1565b909155505060408051338152602081018690527fd90d253a9de34d2fdd5a75ae49ea17fcb43af32fc8ea08cc6d2341991dd3872e910160405180910390a150505050565b6000546001600160a01b03163314610ac35760405162461bcd60e51b81526004016104fd90611383565b600280546001600160a01b0319166001600160a01b0392909216919091179055565b6000546001600160a01b03163314610b0f5760405162461bcd60e51b81526004016104fd90611383565b610b19600061123a565b565b6000546001600160a01b03163314610b455760405162461bcd60e51b81526004016104fd90611383565b6103e8811115610b8c5760405162461bcd60e51b8152602060048201526012602482015271746f6f206d616e792061646472657373657360701b60448201526064016104fd565b60005b81811015610c2657600160166000858585818110610baf57610baf61156d565b9050602002016020810190610bc4919061128a565b6001600160a01b03166001600160a01b0316815260200190815260200160002060006101000a81548160ff021916908315150217905550600160146000828254610c0e91906113e1565b90915550819050610c1e8161153c565b915050610b8f565b505050565b6000600d54421015610c3d5750600090565b600f54600d54610c4d9042611525565b610c5791906113f9565b905090565b6000546001600160a01b03163314610c865760405162461bcd60e51b81526004016104fd90611383565b6001600160a01b03166000908152601660205260409020805460ff19169055565b600080610cb2610c2b565b90506000610cc182600261145e565b600754610cce9190611506565b9050600854811115610ce4576008549250505090565b92915050565b601154610100900460ff16610d365760405162461bcd60e51b81526020600482015260126024820152711c995919595b481b9bdd08195b98589b195960721b60448201526064016104fd565b6010544211610d7c5760405162461bcd60e51b81526020600482015260126024820152711b9bdd081c995919595b58589b19481e595d60721b60448201526064016104fd565b600480546040516370a0823160e01b815233928101929092526000916001600160a01b03909116906370a082319060240160206040518083038186803b158015610dc557600080fd5b505afa158015610dd9573d6000803e3d6000fd5b505050506040513d601f19601f82011682018060405250810190610dfd919061136a565b905060008111610e425760405162461bcd60e51b815260206004820152601060248201526f1b9bc8185b5bdd5b9d081a5cdcdd595960821b60448201526064016104fd565b336000908152601760205260409020600181015460ff1615610e985760405162461bcd60e51b815260206004820152600f60248201526e185b1c9958591e4818db185a5b5959608a1b60448201526064016104fd565b60025460405163a9059cbb60e01b8152336004820152602481018490526001600160a01b039091169063a9059cbb90604401602060405180830381600087803b158015610ee457600080fd5b505af1158015610ef8573d6000803e3d6000fd5b505050506040513d601f19601f82011682018060405250810190610f1c919061132f565b610f385760405162461bcd60e51b81526004016104fd906113b8565b600480546040516301e9a69560e41b81523392810192909252602482018490526001600160a01b031690631e9a695090604401600060405180830381600087803b158015610f8557600080fd5b505af1158015610f99573d6000803e3d6000fd5b5050505081600c6000828254610faf91906113e1565b909155505060408051338152602081018490527f222838db2794d11532d940e8dec38ae307ed0b63cd97c233322e221f998767a6910160405180910390a16001908101805460ff1916909117905550565b6000546001600160a01b0316331461102a5760405162461bcd60e51b81526004016104fd90611383565b6011805460ff19166001908117909155604080519182524260208301527f020b56eb5031e351b28c7914a3185d679342016d533b3fe0d056b43fe5ecb8689101610596565b6000546001600160a01b031633146110995760405162461bcd60e51b81526004016104fd90611383565b6001600160a01b0381166110fe5760405162461bcd60e51b815260206004820152602660248201527f4f776e61626c653a206e6577206f776e657220697320746865207a65726f206160448201526564647265737360d01b60648201526084016104fd565b61066f8161123a565b6000546001600160a01b031633146111315760405162461bcd60e51b81526004016104fd90611383565b6001600160a01b0381166000908152601660205260408120805460ff19166001908117909155601480549192909161116a9084906113e1565b909155505050565b6000546001600160a01b0316331461119c5760405162461bcd60e51b81526004016104fd90611383565b6002546040516323b872dd60e01b8152336004820152306024820152604481018390526001600160a01b03909116906323b872dd90606401610601565b6000546001600160a01b031633146112035760405162461bcd60e51b81526004016104fd90611383565b60025460405163a9059cbb60e01b8152336004820152602481018390526001600160a01b039091169063a9059cbb90604401610601565b600080546001600160a01b038381166001600160a01b0319831681178455604051919092169283917f8be0079c531659141344cd1fd0a4f28419497f9722a3daafe3b4186f6b6457e09190a35050565b60006020828403121561129c57600080fd5b81356001600160a01b03811681146112b357600080fd5b9392505050565b600080602083850312156112cd57600080fd5b823567ffffffffffffffff808211156112e557600080fd5b818501915085601f8301126112f957600080fd5b81358181111561130857600080fd5b8660208260051b850101111561131d57600080fd5b60209290920196919550909350505050565b60006020828403121561134157600080fd5b815180151581146112b357600080fd5b60006020828403121561136357600080fd5b5035919050565b60006020828403121561137c57600080fd5b5051919050565b6020808252818101527f4f776e61626c653a2063616c6c6572206973206e6f7420746865206f776e6572604082015260600190565b6020808252600f908201526e1d1c985b9cd9995c8819985a5b1959608a1b604082015260600190565b600082198211156113f4576113f4611557565b500190565b60008261141657634e487b7160e01b600052601260045260246000fd5b500490565b600181815b8085111561145657816000190482111561143c5761143c611557565b8085161561144957918102915b93841c9390800290611420565b509250929050565b60006112b3838360008261147457506001610ce4565b8161148157506000610ce4565b816001811461149757600281146114a1576114bd565b6001915050610ce4565b60ff8411156114b2576114b2611557565b50506001821b610ce4565b5060208310610133831016604e8410600b84101617156114e0575081810a610ce4565b6114ea838361141b565b80600019048211156114fe576114fe611557565b029392505050565b600081600019048311821515161561152057611520611557565b500290565b60008282101561153757611537611557565b500390565b600060001982141561155057611550611557565b5060010190565b634e487b7160e01b600052601160045260246000fd5b634e487b7160e01b600052603260045260246000fdfea2646970667358221220fe2c63c504b4bf66206b8b0670d302a7b53f2f61fe32ac7a307862405425763064736f6c63430008050033",
  "devdoc": {
    "kind": "dev",
    "methods": {
      "owner()": {
        "details": "Returns the address of the current owner."
      },
      "renounceOwnership()": {
        "details": "Leaves the contract without owner. It will not be possible to call `onlyOwner` functions anymore. Can only be called by the current owner. NOTE: Renouncing ownership will leave the contract without an owner, thereby removing any functionality that is only available to the owner."
      },
      "transferOwnership(address)": {
        "details": "Transfers ownership of the contract to a new account (`newOwner`). Can only be called by the current owner."
      }
    },
    "version": 1
  },
  "userdoc": {
    "kind": "user",
    "methods": {},
    "version": 1
  },
  "storageLayout": {
    "storage": [
      {
        "astId": 7,
        "contract": "contracts/CommunityOffering/CommunityOffering.sol:CommunityOffering",
        "label": "_owner",
        "offset": 0,
        "slot": "0",
        "type": "t_address"
      },
      {
        "astId": 525,
        "contract": "contracts/CommunityOffering/CommunityOffering.sol:CommunityOffering",
        "label": "investToken",
        "offset": 0,
        "slot": "1",
        "type": "t_address"
      },
      {
        "astId": 527,
        "contract": "contracts/CommunityOffering/CommunityOffering.sol:CommunityOffering",
        "label": "launchToken",
        "offset": 0,
        "slot": "2",
        "type": "t_address"
      },
      {
        "astId": 529,
        "contract": "contracts/CommunityOffering/CommunityOffering.sol:CommunityOffering",
        "label": "treasury",
        "offset": 0,
        "slot": "3",
        "type": "t_address"
      },
      {
        "astId": 532,
        "contract": "contracts/CommunityOffering/CommunityOffering.sol:CommunityOffering",
        "label": "nrt",
        "offset": 0,
        "slot": "4",
        "type": "t_contract(CommunityOfferingNRT)1353"
      },
      {
        "astId": 535,
        "contract": "contracts/CommunityOffering/CommunityOffering.sol:CommunityOffering",
        "label": "price",
        "offset": 0,
        "slot": "5",
        "type": "t_uint256"
      },
      {
        "astId": 538,
        "contract": "contracts/CommunityOffering/CommunityOffering.sol:CommunityOffering",
        "label": "priceQuote",
        "offset": 0,
        "slot": "6",
        "type": "t_uint256"
      },
      {
        "astId": 540,
        "contract": "contracts/CommunityOffering/CommunityOffering.sol:CommunityOffering",
        "label": "initialCap",
        "offset": 0,
        "slot": "7",
        "type": "t_uint256"
      },
      {
        "astId": 542,
        "contract": "contracts/CommunityOffering/CommunityOffering.sol:CommunityOffering",
        "label": "maxCap",
        "offset": 0,
        "slot": "8",
        "type": "t_uint256"
      },
      {
        "astId": 544,
        "contract": "contracts/CommunityOffering/CommunityOffering.sol:CommunityOffering",
        "label": "totalraiseCap",
        "offset": 0,
        "slot": "9",
        "type": "t_uint256"
      },
      {
        "astId": 546,
        "contract": "contracts/CommunityOffering/CommunityOffering.sol:CommunityOffering",
        "label": "totalraised",
        "offset": 0,
        "slot": "10",
        "type": "t_uint256"
      },
      {
        "astId": 548,
        "contract": "contracts/CommunityOffering/CommunityOffering.sol:CommunityOffering",
        "label": "totalissued",
        "offset": 0,
        "slot": "11",
        "type": "t_uint256"
      },
      {
        "astId": 550,
        "contract": "contracts/CommunityOffering/CommunityOffering.sol:CommunityOffering",
        "label": "totalredeem",
        "offset": 0,
        "slot": "12",
        "type": "t_uint256"
      },
      {
        "astId": 552,
        "contract": "contracts/CommunityOffering/CommunityOffering.sol:CommunityOffering",
        "label": "startTime",
        "offset": 0,
        "slot": "13",
        "type": "t_uint256"
      },
      {
        "astId": 554,
        "contract": "contracts/CommunityOffering/CommunityOffering.sol:CommunityOffering",
        "label": "duration",
        "offset": 0,
        "slot": "14",
        "type": "t_uint256"
      },
      {
        "astId": 556,
        "contract": "contracts/CommunityOffering/CommunityOffering.sol:CommunityOffering",
        "label": "epochTime",
        "offset": 0,
        "slot": "15",
        "type": "t_uint256"
      },
      {
        "astId": 558,
        "contract": "contracts/CommunityOffering/CommunityOffering.sol:CommunityOffering",
        "label": "endTime",
        "offset": 0,
        "slot": "16",
        "type": "t_uint256"
      },
      {
        "astId": 560,
        "contract": "contracts/CommunityOffering/CommunityOffering.sol:CommunityOffering",
        "label": "saleEnabled",
        "offset": 0,
        "slot": "17",
        "type": "t_bool"
      },
      {
        "astId": 562,
        "contract": "contracts/CommunityOffering/CommunityOffering.sol:CommunityOffering",
        "label": "redeemEnabled",
        "offset": 1,
        "slot": "17",
        "type": "t_bool"
      },
      {
        "astId": 564,
        "contract": "contracts/CommunityOffering/CommunityOffering.sol:CommunityOffering",
        "label": "mininvest",
        "offset": 0,
        "slot": "18",
        "type": "t_uint256"
      },
      {
        "astId": 567,
        "contract": "contracts/CommunityOffering/CommunityOffering.sol:CommunityOffering",
        "label": "launchDecimals",
        "offset": 0,
        "slot": "19",
        "type": "t_uint256"
      },
      {
        "astId": 570,
        "contract": "contracts/CommunityOffering/CommunityOffering.sol:CommunityOffering",
        "label": "numWhitelisted",
        "offset": 0,
        "slot": "20",
        "type": "t_uint256"
      },
      {
        "astId": 573,
        "contract": "contracts/CommunityOffering/CommunityOffering.sol:CommunityOffering",
        "label": "numInvested",
        "offset": 0,
        "slot": "21",
        "type": "t_uint256"
      },
      {
        "astId": 606,
        "contract": "contracts/CommunityOffering/CommunityOffering.sol:CommunityOffering",
        "label": "whitelisted",
        "offset": 0,
        "slot": "22",
        "type": "t_mapping(t_address,t_bool)"
      },
      {
        "astId": 611,
        "contract": "contracts/CommunityOffering/CommunityOffering.sol:CommunityOffering",
        "label": "investorInfoMap",
        "offset": 0,
        "slot": "23",
        "type": "t_mapping(t_address,t_struct(InvestorInfo)602_storage)"
      }
    ],
    "types": {
      "t_address": {
        "encoding": "inplace",
        "label": "address",
        "numberOfBytes": "20"
      },
      "t_bool": {
        "encoding": "inplace",
        "label": "bool",
        "numberOfBytes": "1"
      },
      "t_contract(CommunityOfferingNRT)1353": {
        "encoding": "inplace",
        "label": "contract CommunityOfferingNRT",
        "numberOfBytes": "20"
      },
      "t_mapping(t_address,t_bool)": {
        "encoding": "mapping",
        "key": "t_address",
        "label": "mapping(address => bool)",
        "numberOfBytes": "32",
        "value": "t_bool"
      },
      "t_mapping(t_address,t_struct(InvestorInfo)602_storage)": {
        "encoding": "mapping",
        "key": "t_address",
        "label": "mapping(address => struct CommunityOffering.InvestorInfo)",
        "numberOfBytes": "32",
        "value": "t_struct(InvestorInfo)602_storage"
      },
      "t_struct(InvestorInfo)602_storage": {
        "encoding": "inplace",
        "label": "struct CommunityOffering.InvestorInfo",
        "members": [
          {
            "astId": 599,
            "contract": "contracts/CommunityOffering/CommunityOffering.sol:CommunityOffering",
            "label": "amountInvested",
            "offset": 0,
            "slot": "0",
            "type": "t_uint256"
          },
          {
            "astId": 601,
            "contract": "contracts/CommunityOffering/CommunityOffering.sol:CommunityOffering",
            "label": "claimed",
            "offset": 0,
            "slot": "1",
            "type": "t_bool"
          }
        ],
        "numberOfBytes": "64"
      },
      "t_uint256": {
        "encoding": "inplace",
        "label": "uint256",
        "numberOfBytes": "32"
      }
    }
  }
}